:100000000C943E000C9448000C9448000C9448005A
:100010000C9448000C9448000C9448000C94480040
:100020000C9448000C9448000C9448000C94480030
:100030000C9448000C9448000C9448000C94480020
:100040000C9448000C9448000C9448000C94480010
:100050000C9448000C9448000C9448000C94480000
:100060000C9448000C9448000C9448000C944800F0
:100070000C9448000C9448000C94480011241FBEB6
:10008000CFEFD0E1DEBFCDBF0E9480000C94950081
:100090000C9400001F93182F80E10E947600812F9E
:1000A0000E9476001F9108951F93182F80E00E94F0
:1000B0007600812F0E9476001F91089584E10E94AE
:1000C0007600089588E10E947600089584E00E94F9
:1000D0007600089588E00E94760008950E947100DD
:1000E000089580EB84B981E58CBD08958EBD0DB473
:1000F00007FEFDCF08950DB407FEFDCF8EB5089520
:10010000CF93DF930E946E0080E00E94540080E055
:100110000E944A00C0E0D0E00E9466000E945E009B
:0E0120002196CF3FD105C1F7EFCFF894FFCF66
:00000001FF
